:100000000C9420030C94D5230C943D030C943D03D5
:100010000C943D030C943D030C943D030C943D0360
:100020000C943D030C943D030C949B2B0C946D2C71
:100030000C949F260C943D030C943D030C943D03BB
:100040000C943D030C943D030C943D030C943D0330
:100050000C943D030C9444270C943D030C943D03F5
:100060000C943D030C943D030C943D030C943D0310
:100070000C943D030C943D030C943D030C943D0300
:100080000C943D030C943D030C943D030C943D03F0
:100090000C943D030C943D030C943D030C943D03E0
:1000A0000C943D030C943D030C943D033007300742
:1000B0005C075C07C407E207D108D108E7075D08C1
:1000C0006E086E08A219141AAA1974197819AE19B3
:1000D0007B19B119BC1986190A1A8A19C0198E1907
:1000E000C419EE199219C819F8199819CE19D81906
:1000F0007F19B5198219B8199D19D319E419041A71
:10010000061A7019A6191D1ADF1DD51DE21D351E10
:100110003A1E3A1E351E3A1E3A1E031E3A1E0D1E88
:10012000171E3A1E3A1E3A1E3A1E351E3A1E3A1E37
:10013000351E3A1EF01D3A1E3A1E271E271E271E88
:10014000271E271E271E271E271E271E371E3A1E64
:10015000DF1DD21D3A1E3A1E3A1E3A1E3A1E3A1EA4
:100160003A1E3A1E3A1E3A1E371E3A1E3A1E351ED7
:100170003A1E251E251E251E251E251E251E251E52
:10018000251E251E371E29222F221D22232235221D
:100190003B224122D52CFC2CF42DFC2CF42D482D97
:1001A0006B2DF42DC22DD12D14001A00080015005E
:1001B000170004281624072109220A001D431B34B6
:1001C0000600190005000000000029462C442B45BC
:1001D000130012000C0018001C0034280F240E21FC
:1001E0000D220B0038433734360010001100000098
:1001F00000004C492A47284814001A00090013003F
:10020000050004281524162117220A001D431B345B
:100210000600070019000000000029462C442B4569
:1002200034001C0018000F000D0012280C240821B7
:10023000112210003843373436000B000E00000046
:1002400000004C492A47284814001A0008001500ED
:10025000170004001600070009000A001D001B001B
:100260000600190005000000000029002C002B00EA
:10027000130012000C0018001C0034000F000E00C8
:100280000D000B0038003700360010001100000090
:1002900000004C002A0028001D011B010601190165
:1002A0001C01E300E200E000E10000001D011B0171
:1002B000060119011C0100000000D300D100D2008A
:1002C0001D011B01060119011C01E300E200E00011
:1002D000E10000001D011B01060119011C010000C5
:1002E0000000D300D100D200005703570257015736
:1002F0000000E300E200E000E10000000000E60092
:100300000857055700000000000000000000000032
:100310001D011B01060119011C01737C4F005200D5
:100320005100500049004D004B004E004A000000B3
:1003300000004C002A0028000057035702570157BD
:100340000000E300E200E000E10000000000E60041
:1003500009570657000000000000000000000000E0
:100360001D011B01060119011C010000D000CD0078
:10037000CE00CF000000DC00D900DA00DB00000076
:100380000000D300D100D200005703570257015795
:100390000000E300E200E000E10000000000E600F1
:1003A0000A5707570000000000000000000000008E
:1003B000207827782578237821780000AB00A900E1
:1003C000AA00AC00207C000000000000000000003B
:1003D0000000A800AE00AD002F002400250026007C
:1003E000300033002100220023002E0035001E00C3
:1003F0001F002000310000000000370027002D0002
:1004000000570357025701570000E300E200E000E5
:10041000E10000000000E60005570857000000005A
:1004200000000000000000002F0224022502260226
:10043000300233022102220223022E0235021E0262
:100440001F022002310200000000260227022D02B6
:1004500000570357025701570000E300E200E00095
:10046000E10000000000E600065709570000000008
:100470000000000000000000450040004100420074
:10048000460044003D003E003F00470043003A0064
:100490003B003C0048000000000065002C002B00E1
:1004A00000570357025701570000E300E200E00045
:1004B000E10000000000E60007570A5700000000B6
:1004C000000000000000000010034D0069006E00F5
:1004D000690044006F00780000001C0354006800AD
:1004E000610074002D00430061006E006100640033
:1004F000690061006E0000000403090409023B006A
:10050000020100A0FA090400000103010100092111
:1005100011010001224000070581030800010904C0
:100520000100010300000009211101000122B600B1
:10053000070582032000011201000200000008EDFF
:10054000FE603001000102000105010902A10185E0
:10055000020901A1000509190129081500250195C5
:1005600008750181020501093009311581257F9542
:10057000027508810609381581257F950175088166
:1005800006050C0A38021581257F9501750881063C
:10059000C0C005010980A101850319012AB7001512
:1005A0000126B700950175108100C0050C0901A155
:1005B00001850419012AA002150126A002950175E2
:1005C000108100C005010906A1018506050719E093
:1005D00029E7150025019508750181020507190015
:1005E00029EF1500250195F0750181020508190113
:1005F0002905950575019102950175039101C005C5
:10060000010906A101050719E029E7150025019553
:1006100008750181029501750881010507190029F6
:10062000FF150026FF0095067508810005081901D1
:100630002905950575019102950175039101C00089
:1006400011241FBECFEFDAE0DEBFCDBF12E0A0E085
:10065000B1E0E6EEFDE502C005900D92A435B107CC
:10066000D9F723E0A4E5B2E001C01D92A63DB20790
:10067000E1F70E949C160C94F12E0C940000FC01F2
:100680008281823011F40E9487040895FC018281E6
:10069000823021F481E090E00E94C0090895FC01BD
:1006A0008281823021F482E090E00E94C0090895A6
:1006B000FC018281823021F484E090E00E94C00934
:1006C0000895FC018281823021F488E090E00E944C
:1006D000C0090895FC018281823021F480E190E01C
:1006E0000E94C0090895FC018281823021F480E2D9
:1006F00090E00E94C0090895FC018281823021F4BB
:1007000080E490E00E94C0090895FC01828182305B
:1007100021F480E890E00E94C0090895FC018281E4
:10072000823021F480E091E00E94C0090895FC012C
:100730008281823021F480E092E00E94C009089515
:100740008A30B0F46830A0F4453090F498E2899F84
:10075000F001112485E0689FE00DF11D1124E40FE4
:10076000F11DEE0FFF1FE855FE4F859194910895FE
:1007700080E090E008950E94A00308959C013A95BE
:1007800021153F4130F5BC0166277270AC0144274A
:1007900054709C012227387094FF0FC090FF02C054
:1007A00080E101C080E0672B09F08062452B09F0F1
:1007B0008064232B79F080680895892F8170672BDE
:1007C00009F08260452B09F08460232B19F08860C2
:1007D000089580E00895CF93DF93EB010E94BE035C
:1007E000FE010995DF91CF910895CF93DF93EC013E
:1007F000805E9109089710F0209719F469EE76E071
:1008000002C06AE379E0CE010E94EB038C2F0E94C4
:10081000AC05DF91CF910895CF93DF93EC010E9457
:100820005B06CE01805E9109089710F0209719F4BD
:1008300060EF76E002C061E479E0CE010E94EB0354
:10084000DF91CF91089581E0089581E008950E949D
:100850002504089508950E942A040895A5E0B0E0B3
:10086000E4E3F4E00C945D2E49835A8330915B02FB
:1008700089819A81311114C0662359F0222349F0ED
:100880000E94BD0A182F682F89819A810E94990AB7
:1008900003C00E94AB0A182F69817A81812F04C09E
:1008A0000E94BD0A69817A810E948B112596E3E03E
:1008B0000C94792EFC01262F408151816281738135
:1008C00084810E942E04089581E00895CF93DF93E0
:1008D000EC0160E00E945A04BE010E942B04DF91EB
:1008E000CF9108950E94F61208950E94F012089583
:1008F00008950E9462090E9478042FEF84E39CE02F
:10090000215080409040E1F700C0000008950E940F
:1009100079040E946A2708950E9479040E947B2727
:1009200008950F931F93CF93DF938C0161E00E9492
:100930005A04EC01B8010E949322882329F061E057
:10094000C8010E945A04EC01B801CE010E9427049C
:10095000882309F45EC0B801CE010E94E11F8823FC
:1009600009F457C0B801CE010E94BB22882309F4C4
:1009700050C0B801CE010E946C1C882309F449C004
:10098000B801CE010E948C1B882309F442C0B80133
:10099000CE010E9411228823E1F1B801CE010E940C
:1009A0004C198823B1F1B801CE010E948A1E882318
:1009B00081F1F8018281882341F1C3308CE7D807A7
:1009C000D1F040F4C115FCE7DF0791F0C130DC47FE
:1009D000A1F01BC0CB35ECE7DE07A9F0CC35FCE776
:1009E000DF0771F0CA35DC4781F40E94030F0DC0A8
:1009F0000E9487040EC00E940B0F0E948C0409C045
:100A00000E94F90E02C00E94070FC8010E94230431
:100A100001C080E0DF91CF911F910F9108950E9456
:100A200078260E94390508950E943D050E9481267E
:100A3000089508950E941905089581E00895089584
:100A4000CF93DF93D82F0E941D05C82F882319F05C
:100A50008D2F0E941F058C2FDF91CF91089508954F
:100A6000CF93C82F0E941A058C2F0E942005CF918A
:100A7000089580E00E94300508950E9400250E949C
:100A800030050895CF930E940025C82F809156020B
:100A9000C81779F0C09356020E940D276093570241
:100AA000709358028093590290935A028C2F0E949F
:100AB0003005CF910895ABE0B0E0E1E6F5E00C94AD
:100AC0005E2E4F83588769877A878B8761110E94D2
:100AD000220E9E012F5F3F4F86E0F90111928A9509
:100AE000E9F785E0FE013796D90101900D928A95CC
:100AF000E1F789819A814C815D81452B31F09F3FDF
:100B000031F491E08F3F19F403C091E001C090E00F
:100B100090FF09C049815A816B817C818D819E81C2
:100B20000E94480D05C0C9010E9464048111F2CFE2
:100B30002B96E2E00C947A2EFC01808191810E9438
:100B4000EF0A0895662319F00E94211702C00E943F
:100B50007C170E94F3170895CF93882309F4A9C046
:100B6000C82F8238C1F40E94002581FDA2C069E32C
:100B70008091A0019091A1010E941C260E94520E1A
:100B80002FEF87EE93E0215080409040E1F700C0C6
:100B9000000069E319C0833801F50E94002580FD3B
:100BA00088C063E58091A0019091A1010E941C265C
:100BB0000E94520E2FEF81EE94E021508040904031
:100BC000E1F700C0000063E58091A0019091A101D0
:100BD0000E942A260E94520E6CC08438C1F40E94E2
:100BE000002582FD66C067E48091A0019091A1017B
:100BF0000E941C260E94520E2FEF81EE94E021509D
:100C000080409040E1F700C0000067E4DDCF8CEF4A
:100C10008C0F813AF8F48C2F0E94411E811149C03B
:100C20006C2F8091A0019091A1010E949C258823A6
:100C300049F06C2F8091A0019091A1010E942A2679
:100C40000E94520E6C2F8091A0019091A1010E94F0
:100C50001C26C0CF80E28C0F883048F4C77081E03A
:100C600001C0880FCA95EAF70E94020EB3CFEBE5E8
:100C7000EC0FE33040F4F0E0E05FFD4F808190E066
:100C80000E943C2516C0E8E5EC0FE93150F4F0E095
:100C9000EE0FFF1FE252FE4F808191810E9461257D
:100CA00008C083E38C0F833120F461E08C2F0E9415
:100CB000A205CF910895882309F468C0823879F499
:100CC0000E94002581FF62C069E38091A00190919C
:100CD000A1010E941C260E94520E69E310C08338B5
:100CE000B9F40E94002580FF51C063E58091A00106
:100CF0009091A1010E941C260E94520E63E58091F2
:100D0000A0019091A1010E942A260E94520E0895EE
:100D1000843879F40E94002582FF38C067E480910E
:100D2000A0019091A1010E941C260E94520E67E42E
:100D3000E6CF9CEF980F913A10F4682FE0CF90E245
:100D4000980F983050F4877091E001C0990F8A9500
:100D5000EAF7892F0E94080ED8CF9BE5980F9330B1
:100D600028F480E090E00E943C25089598E5980FD3
:100D7000993128F480E090E00E946125089593E382
:100D8000980F933118F460E00E94A20508951F9314
:100D9000CF93DF93182FEB010E94AC05209741F011
:100DA0008FE99FE00197F1F700C000002197F6CF8F
:100DB000812F0E945B06DF91CF911F9108958933A7
:100DC00019F060E070E002C060E570E00E94C706C4
:100DD0000895882321F00E94020E0E94520E089569
:100DE000882321F00E94080E0E94520E0895A0E070
:100DF000B0E0EDEFF6E00C94582E7C01162FC72FD3
:100E0000FC01D281058102950F700E94F80D8823A4
:100E1000B9F0DD23A9F08C2F807F803421F080E2AF
:100E2000810F883068F08091B20382FF09C082E0B0
:100E30000E94C70E0E94F80D91E0D82ED92601C05D
:100E4000D12CCC2EC2948FE0C8228C2D90E08C3017
:100E5000910508F0A6C1FC01EA5AFF4F0C94482EF8
:100E60008C2F807FCF70882311F0C295C07FDD2347
:100E700099F0CC2309F481C180E2810F883010F011
:100E8000111104C08C2F0E94020E03C08C2F0E94EF
:100E9000150E0E94520E71C1812F0E945B06CC2359
:100EA00009F47FC180E2810F883038F1112329F1E4
:100EB0008C2F0E941B0E24C08C2F807FCF7080321D
:100EC00011F0C295C07F112319F01130D1F146C045
:100ED0008091B20382FD17C0DD2349F0CC2329F0B5
:100EE0008C2F0E94020E0E94520E80E047C180E0CB
:100EF0000E945B06CC2309F454C18C2F0E94080E7B
:100F00000E94520E4EC1DD2371F0002341F00130EA
:100F100031F40E94310E8C2B0E943B0E42C10E9484
:100F2000310E8C2B14C0011103C00E94480E28C042
:100F3000013009F436C18C2F0E94F0060E94480E41
:100F400030C1DD2339F0063008F02BC18C2F0E9410
:100F5000E90627C1053008F024C112C0DD2319F0CD
:100F60000023A1F30AC1002359F0193309F016C177
:100F7000FFEF27EE83E0F15020408040E1F70CC105
:100F80008C2F0E94F0060DC18C2F8695869583705C
:100F900019F0813061F005C1DD2321F0812F9C2FF4
:100FA000937002C080E090E00E943C2502C1DD23E6
:100FB00021F0812F9C2F937002C080E090E00E946E
:100FC0006125F7C06D2F812F0E94A205F2C08C2FE2
:100FD0008370B1F5D111E9C0412F42954695477014
:100FE000440F440F812F8F7090E09C01042E02C0AB
:100FF000220F331F0A94E2F714FF0AC08FE090E03B
:1010000002C0880F991F4A95E2F78095909502C01B
:1010100080E090E0C695C695C370822B932BC230BA
:1010200049F058F4C13019F00E94CC09BEC00E94AA
:10103000C309BBC00E94D509B8C00E94C009B5C091
:10104000DD2319F08C2F817001C08695882309F467
:10105000ACC0412F429546954770440F440F812FF5
:101060008F7090E09C01042E02C0220F331F0A945F
:10107000E2F714FF0AC08FE090E002C0880F991FCA
:101080004A95E2F78095909502C080E090E0C69581
:10109000C695C370822B932BC23049F058F4C130EF
:1010A00019F00E94340A81C00E942B0A7EC00E945F
:1010B0003D0A7BC00E94E10978C0CF70DD2339F082
:1010C0008C2F0E94F909812F0E94E9066EC0812FA2
:1010D0000E94F0068C2F0E94090A67C0123F21F17E
:1010E00028F4103F41F0113FC1F043C0133F19F104
:1010F000143F79F03EC0DD2341F0053008F051C0C7
:101100008C2F8F710E941B0A4CC0063008F049C01A
:10111000F7CF8091B20382FD18C0DD2339F08C2F08
:101120008F710E94F9093DC0DD23C9F38C2F8F71A7
:101130000E94090A36C0DD2329F08C2F8F710E948E
:10114000ED092FC00E94E8092CC0DD2349F0CF71C2
:101150008C2F0E94F90963E08C2F0E94A90E21C0F8
:1011600081E00E94C70E0230E0F082E00E94C70ECC
:1011700018C0DD2331F0002391F2812F0E94AC05CD
:1011800010C0002399F2193349F49FEFE7EEF3E022
:101190009150E040F040E1F700C00000812F0E9434
:1011A0005B0688EF8C0D843020F40E9400250E949D
:1011B0003005DD2089F00E94F40D80FD0DC0F7019F
:1011C00012820E94EE0D0E94F909C7010E940909CE
:1011D0000E94EE0D0E94090ACDB7DEB7E8E00C943C
:1011E000742E0F931F93CF93DF93EC016881798165
:1011F0008A810E94FA0A8C010E94460A0E94B10963
:10120000B801CE010E94F706DF91CF911F910F9197
:101210000895CF93DF93EC01988189812B813C81E4
:10122000232B31F08F3F31F481E09F3F19F403C04D
:1012300081E001C080E080FD1AC0CE010E949104CF
:1012400081110FC00E94F80D882389F08A818823BC
:1012500071F08091B20382FF0AC082E00E94C70E43
:1012600006C0CE010E94F108CE010E946604DF9103
:10127000CF910895882321F00E94150E0E94520EEE
:101280000895882321F00E941B0E0E94520E08959B
:1012900080E090E00E943C2580E090E00E94612583
:1012A0000E94220E0E94520E0E9412180E94F317F2
:1012B00008958091A0019091A1010E9438260E947A
:1012C000480908950E940F0E0E94590908959295A9
:1012D0009F70963079F010F4925001C09A5092307D
:1012E00068F4803F69F018F4883E40F409C0843FF8
:1012F00029F406C0883E20F0813F11F080E0089577
:1013000081E00895FC019081818123813481232B28
:1013100031F08F3F31F481E09F3F19F403C081E049
:1013200001C080E080FD07C0808191810E94EF0AAA
:101330000E946709089580E00895A5E0B0E0E3EA1F
:10134000F9E00C945E2E2596E2E00C947A2EA6E04D
:10135000B0E0EDEAF9E00C945E2E2696E2E00C9403
:101360007A2E089508950E94B20908950E94B30943
:1013700008950E94B60990937302809372020895B3
:101380000E94B90908952091720230917302822B54
:10139000932B0E94B9090895209172023091730233
:1013A000822393230E94B9090895209172023091FB
:1013B0007302822793270E94B90908950E94B209F7
:1013C00008950E94DE09909371028093700208953F
:1013D00080E090E00E94E109089521E030E0A90159
:1013E00002C0440F551F8A95E2F7CA010E94E10925
:1013F000089521E030E002C0220F331F8A95E2F702
:101400008091700290917102822B932B0E94E109CE
:10141000089521E030E002C0220F331F8A95E2F7E1
:1014200020953095809170029091710282239323D0
:101430000E94E109089521E030E002C0220F331F2D
:101440008A95E2F78091700290917102822793272A
:101450000E94E10908952091700230917102822B5F
:10146000932B0E94E109089520917002309171023E
:10147000822393230E94E109089520917002309104
:101480007102822793270E94E10908950895962FFB
:101490009770A1E001C0AA0F9A95EAF793E07695BC
:1014A00067959A95E1F7660F771F660F771FFA0128
:1014B000E60FF71F40E050E0682F70E090819B013D
:1014C000042E02C0369527950A94E2F721702195E3
:1014D00029272A23292721934F5F5F4F4430510545
:1014E00069F70895FB01782F777023E0969587952B
:1014F0002A95E1F7880F991F880F991FE80FF91FA8
:1015000040E050E080E0219130E0072E02C03695A7
:1015100027950A94E2F721703327042E01C0220F89
:101520000A94EAF7822B4F5F5F4F4430510559F719
:101530000895282F983070F4853060F4862F622F3C
:1015400070E025E0929F600D711D11244CE552E082
:101550000E94470A0895983070F4853060F4292F6E
:1015600090E06CE572E035E0239F800D911D112421
:101570000E94720A089580E00895A0E0B0E0E3ECD4
:10158000FAE00C94572E7C010091700210917102C8
:101590008091720290917302082B192BCFE0D0E05A
:1015A000CC24C394D12CC6010C2E02C0880F991FE5
:1015B0000A94E2F780239123892B21F4219798F74D
:1015C000B12C07C0BC2EB7018C2F0E949711019738
:1015D000A9F38B2DCDB7DEB7E9E00C94732ECF9332
:1015E000DF93EC010E94BD0ABE010E949711DF91BA
:1015F000CF9108951F93CF93DF93EB0190915B02FE
:10160000992321F0CB010E94EF0A13C0882349F0EF
:10161000CB010E94BD0A182F682FCE010E94990AA3
:1016200004C0CB010E94AB0A182FBE01812F0E947B
:101630009711DF91CF911F9108951F93CF93DF935F
:10164000C091740216E080917502C81799F0D0E03D
:101650001C9FF0011D9FF00D1124EA58FD4F4081A1
:10166000518162817381848195810E94A7092196AD
:10167000C770E9CFDF91CF911F9108954091A602E5
:101680005091A7026091A8027091A9028091AA02CC
:101690009091AB020E94A70908950F931F93CF93D7
:1016A000DF938091AB0282958F7009F05AC08091D0
:1016B000A802882309F455C0809174021091750224
:1016C0006091A6027091A702C091A902D091AA02CE
:1016D00091E06F3F09F090E0292F06E0811709F4AF
:1016E00040C0209721F07F3F21F030E003C031E07F
:1016F00001C0322F90E030FD31C0089FF001099FFA
:10170000F00D1124DF01AA58BD4F11963C9111979D
:10171000371324C03C91361321C012963C91129786
:1017200031111CC013964D915C9114974C1B5D0BAD
:10173000483C510598F48091AB028F708061809392
:10174000AB02E558FD4F80818F708061808386EA0F
:1017500092E00E9409090E941D0B03C00196877048
:10176000BDCFDF91CF911F910F910895A1E1B0E01E
:10177000ECEBFBE00C94552E8C0185E0F801DE01CA
:101780001D9601900D928A95E1F7F801E280909103
:10179000A6026091A7022091A9023091AA02211508
:1017A000310531F06F3F31F481E09F3F19F403C000
:1017B00081E001C080E0F82FF1709F2E80FD26C1EE
:1017C000F80140815181A380B48086EAC82E82E06E
:1017D000D82EF090A802F501E21BF30BFF2009F4CC
:1017E000E6C08091AB02E83CF10508F0A2C0282FCA
:1017F000207F09F053C0561313C0491311C0FE2CAB
:10180000E1100EC08F7080618093AB020E943E0B8E
:10181000C6010E9409098091AB02F801858333C19A
:10182000A114B10431F05F3F31F481E04F3F19F46E
:1018300003C081E001C080E080FD03C081E08E250F
:1018400002C080E090E0F82FF170FF2E80FF1CC0F6
:10185000809174022091750236E0821709F4F1C07C
:1018600090E0389FF001399FF00D1124EA58FD4FA8
:101870006181561306C06081461303C06281E6127F
:1018800003C001968770E9CFFE2CEE2009F4FBC05F
:101890008091AB0281608093AB0260C0561312C08E
:1018A000491310C0E1100EC0F8018583C8010E94E1
:1018B000090986E0F801A6EAB2E001900D928A9546
:1018C000E1F7BCC0C8010E948209882361F1EE20C3
:1018D00051F12091AB02822F82958F7090E0029798
:1018E00074F08091A6029091A70298878F83198641
:1018F000BB86AA862C87CE0107960E94090986E03E
:10190000F801A6EAB2E001900D928A95E1F70E94F3
:101910004D0B0E943E0B0AC0561711F1C8010E94E0
:10192000820981112CC0C8010E940909FF24F39487
:10193000AAC0282F207F81F77A2DB98AA88A6E2D18
:1019400089890E949D0986EA92E00E94090986E041
:10195000F60111928A95E9F70E943E0BF12C93C093
:101960004913DCCFE110DACFF8018583C8010E946A
:10197000090986E0F60111928A95E9F784C0EE2004
:1019800091F22091AB02822F82958F7090E00297A6
:101990000CF4B5CF8091A6029091A7029A83898317
:1019A0001B82BD82AC822E83CE010196A6CFE83C7D
:1019B000F105F8F4FE2CEE2009F4B5CF56130BC058
:1019C000491309C086E0F801A6EAB2E001900D9241
:1019D0008A95E1F758C0C8010E94820981118FCF12
:1019E0008091AB0281608093AB02C8010E9409091B
:1019F0004AC07A2DB98AA88A6E2D89890E949D09CC
:101A000086E0F60111928A95E9F718C0EE2009F4F4
:101A10008ACFC8010E948209F82E882309F483CF57
:101A200086E0F801A6EAB2E001900D928A95E1F70E
:101A300086EA92E00E949C050E944D0B0E943E0B9C
:101A400022C04D875E878D859E850E94EF0A292FD3
:101A500022952F70223028F49F7039F0811105C033
:101A60000BC0243028F49F7049F4805E883020F049
:101A7000C8010E9409099F2CF92C05C0F801958125
:101A8000907F99F7F9CF8F2D6196EBE00C94712E32
:101A9000ACE0B0E0EEE4FDE00C945D2E4F8358879F
:101AA00069877A878B879C87CE0107960E94B60B41
:101AB0008823D1F09F8188852A853B85232B31F0AF
:101AC0008F3F31F481E09F3F19F403C081E001C0F2
:101AD00080E080FD47C04F81588569857A858B8578
:101AE0009C850E94A7093EC086E0FE013796DE0174
:101AF000119601900D928A95E1F7FF81E8856A853C
:101B00007B856115710531F0EF3F31F481E0FF3FD6
:101B100019F403C081E001C080E080FD23C0209162
:101B2000750230E0C90101968770992740917402CF
:101B300050E084179507F1F1F983EA837D836C8384
:101B400096E0929FD001939FB00D1124AA58BD4FEB
:101B5000FE01319601900D929A95E1F780937502FE
:101B60000E941D0B16E080917402909175028917F6
:101B700071F1189FC00111248A589D4F0E94B60B25
:101B8000882329F1E09174021E9FF0011124EA5884
:101B9000FD4F4081518162817381848195810E94D2
:101BA000A7098091740290E001968770992780932D
:101BB0007402D9CF0E9462091092750210927402C9
:101BC000E6EAF2E086E0DF011D928A95E9F72C96BD
:101BD000E3E00C94792E8091CD0208958091CC029F
:101BE00085958595859508958091CC028770089597
:101BF0009091CC02977081E009F480E00895809183
:101C0000F20208959091F202892B8093F2020895D6
:101C100080959091F20289238093F20208951092A8
:101C2000F20208958091F10208959091F102892BBA
:101C30008093F102089580959091F1028923809319
:101C4000F10208951092F10208958093F002089530
:101C50001092F00208958093EF0208951092EF021F
:101C600008958091CE02089508950E94340E08953B
:101C70000E94350E08959091B20392FF08C0909192
:101C8000CE02981721F08093CE020E94380E08955C
:101C90008091CE02882329F01092CE0280E00E942B
:101CA000380E0895CF93DF93E091A001F091A10148
:101CB0008091F2028083E091A001F091A1019081D6
:101CC0008091F102892B80838091CE02882381F05C
:101CD000E091A001F091A1019081892B80838091F6
:101CE000A0019091A1010E94862581110E94480EB9
:101CF000E091A001F091A1018091EF028095908187
:101D000089238083E091A001F091A10190818091CD
:101D1000F002892B8083C091A001D091A10140E203
:101D200050E06CEA72E0CE010E94992E892B59F0A6
:101D300080E2FE01ACEAB2E001900D928A95E1F7F3
:101D4000CE010E941425DF91CF9108950E94340E98
:101D500008959091B20392FF11C098E0899F90017D
:101D60001124262B2093CC020E94F9098091CC02E9
:101D70008595859585950E94A60E08950E94F9097E
:101D800008951092CC0280E00E94A60E0895209142
:101D9000CC02809582238093CC02982F977099F47F
:101DA00030E0482F082E000C550B2417350759F04A
:101DB0009091B20392FF07C08595859585950E9405
:101DC000090A0E94C10E08959091B20392FB222746
:101DD00020F9281769F080FB92F99093B203809163
:101DE000B1039091B2030E942C0F82E00E94C70EB3
:101DF00008958091B20382FB882780F991E08927BA
:101E00000E94E40E089581E00E94E40E089580E0AF
:101E10000E94E40E08956FEF7FEF80E090E00E9453
:101E2000DB2E089580E090E00E94B72E21E0873EEF
:101E30009E4F09F020E0822F089582E090E00E94FA
:101E4000AF2E089583E090E00E94AF2E089584E0C5
:101E500090E00E94B72E0895BC0184E090E00E94BB
:101E6000DB2E0895AB01BC018FE090E00E94CF2EE5
:101E70000895AB01BC0183E190E00E94CF2E08954C
:101E800060E070E0CB010E94390F089560E070E0DF
:101E9000CB010E94320F0E94400F089567EE7EEF43
:101EA00080E090E00E94DB2E60E082E090E00E9403
:101EB000BD2E60E083E090E00E94BD2E1092730280
:101EC0001092720260E074E184E090E00E94DB2EE8
:101ED00060E086E090E00E94BD2E6FEF87E090E02A
:101EE0000E94BD2E40E050E0BA0188E090E00E94E0
:101EF000CF2E60E08DE090E00E94BD2E40E050E0EB
:101F0000BA0188E190E00E94CF2E60E087E190E086
:101F10000E94BD2E40E050E0BA018CE190E00E94AA
:101F2000CF2E60E070E080E290E00E94DB2E40E087
:101F300050E0BA0188E190E00E94CF2E0E94460F47
:101F400008950E944E0F0895682F8EE090E00E9441
:101F5000BD2E08950E940D27609301037093020324
:101F600080930303909304036093FD027093FE0239
:101F70008093FF029093000308950E9489140895AE
:101F800008950E94C00F08950E94C00F08950E94F6
:101F9000C40F08950E94C00F08950E94CA0F0895AB
:101FA0000E94C00F08958BEB92E10E94F6240E94DC
:101FB000D00F0E94CD0F08950E94C10F0E94C00F44
:101FC00008950E94BE120E942F0508950E94F826CF
:101FD0000E947B120E94A6140E94EC130E94E10F43
:101FE0000E9434190E94B0140E94C70F08950E94E5
:101FF0008914882341F00E94A51F0E941C230E947F
:10200000571B0E94291D0895AAE0B0E0EAE0F0E124
:102010000C94562E0E94111485EFE82E82E0F82EC3
:10202000670100E0F60111916F01802F0E94DC1220
:1020300081270F5F083019F08823A1F322C0811196
:1020400020C00E9401278C018091F3029091F4023C
:102050000817190709F450C08FEF89838A831B8200
:102060000E9401278160782F9D838C8349815A814A
:102070006B818D810E945B051093F4020093F30243
:102080003BC08091050381FD0E94E2120E94BD0FBA
:10209000A82E10E0812F0E94DC12B82EF701C0801C
:1020A000C82611F100E0DD24D3948C2D8D21B1F0F0
:1020B000AA20A1F00E831F8391E08B2D8D2109F4BE
:1020C00090E098870E9401278160782F9A878987FE
:1020D0004E815F8168858A850E945B050F5FDD0CFC
:1020E000053019F7F701B0821F5FFFEFEF1AFF0A03
:1020F000183081F60E94AA0F0E94F70F0E94341830
:102100000E9442052A96EAE00C94722ECF93DF9348
:102110000E949C11EC01811520E59207E0F58115E4
:1021200030E4930708F09FC0803E910528F58D3C70
:10213000910508F096C0883A910570F4853A9105AA
:1021400008F085C08130910509F47EC008F4DCC038
:10215000049708F0DCC0D8C0813C910508F0D4C0D9
:10216000C85AD0E0CC0FDD1FCD5EDD4F0990D8817D
:10217000C02DCE019464CCC0811540E2940708F0D4
:10218000B8C0811551E0950708F0C1C0883E91059F
:1021900008F4BDC0B9C0803662E5960720F58034EA
:1021A00072E5970708F06CC0C03282E5D80708F0E6
:1021B0005EC0C11592E5D90708F489C02C2F269579
:1021C000269560E2269F90011124C37081E090E083
:1021D00002C0880F991FCA95E2F7E901C82BD92BD5
:1021E000CE019D6895C0803A22E59207E0F48F7198
:1021F000C03832E5D30708F059C08695869570E25D
:10220000879F900111249C2F9370C1E0D0E0AE0114
:1022100002C0440F551F9A95E2F7EA01DA68C90136
:102220008C2B9D2B75C0803C42E5940708F445C07B
:10223000803E924508F068C0CF71DD27DC2FCC27A7
:10224000CE01806F906A64C081E090E061C0C55AA1
:10225000D0E0CB5BDD4F8881C82FD0E0CE01906409
:1022600057C0906555C0DF70CE01906A51C0CF71E4
:102270008C2F90E0D82FCC27CE01816F906A48C078
:102280008F718695869570E2879FA00111249C2FFF
:10229000937021E030E0B90102C0660F771F9A9574
:1022A000E2F7CB019C68842B952B32C090E0D82FAD
:1022B000CC27CE01846F906A2BC08F710E94381298
:1022C0008F7190E0D82FCC27CE01906221C08C2F47
:1022D0008F710E94381295E0D695C7959A95E1F7CF
:1022E000CF70D0E0DC2FCC27D069BE01682BCB01AA
:1022F0000FC08D2F8F710E943812DD27D0628F7131
:102300009E01382BC90104C080E090E001C0CE01DD
:10231000DF91CF910895783038F4653028F4462F56
:10232000672F0E94BB03089580E090E008950E940B
:102330008B110E94861008958238910569F1B0F4DE
:102340008133910509F475C048F48932910509F487
:1023500067C08A32910509F471C0089585339105EB
:1023600009F459C089339105B9F00895833E910568
:1023700089F138F4803E9105D1F0823E910529F132
:102380000895863E9105C9F1873E9105D9F1843EB5
:10239000910509F06CC027C02091B10320FD57C002
:1023A00021FD55C02091B20323FD5BC008958091AB
:1023B000B10380FD48C08091B20380FF48C0809186
:1023C000B10384FD46C083EE51C08091B10382FF0A
:1023D0003CC0F5CF8091B10382FD37C08091B2033C
:1023E00080FD35C0ECCF8091B20381FF36C0809173
:1023F000B10384FD2EC087EE39C08091B10383FF05
:102400002AC0F5CF8091B10383FD25C08091B2032E
:1024100081FD23C0ECCF8091B10385FD22C01FC098
:102420008091B10385FD1BC08091B20383FF19C069
:102430000AC08091B10386FD16C017C08091B10318
:1024400086FD13C010C089E311C082EE0FC080EE7C
:102450000DC080E00BC086EE09C084EE07C085E3A6
:1024600005C089E203C08AE201C081E390E00895DB
:102470009091B10392FF0DC0282F2871283019F4D4
:10248000877F846006C0282F2471243011F48B7F4D
:10249000886093FF0DC0282F2871283119F4877E9A
:1024A000846106C0282F2471243111F48B7E886149
:1024B0002091B20320FF0DC0382F3871383019F445
:1024C000877F816006C0382F3171313011F48E7FE3
:1024D000886021FF0DC0282F2871283119F4877ECC
:1024E000816106C0282F2171213111F48E7E88610F
:1024F00094FD877E08951092AD031092AE03109262
:10250000AF031092B0030895CF92DF92EF92FF9243
:102510006B017C010E94891481110EC00E940D275D
:10252000C61AD70AE80AF90AC092AD03D092AE03E0
:10253000E092AF03F092B003FF90EF90DF90CF9066
:1025400008950F931F930E948914882319F00E9405
:102550000D270EC00E940D270091AD031091AE0310
:102560002091AF033091B003600F711F821F931F42
:102570001F910F91089580E0089508950E94120F11
:10258000811102C00E94A10F0E941D0F80930503BC
:102590000E94270F9093B2038093B1030E94BD1253
:1025A0000E94220F90E00E94C009809170029091D9
:1025B00071020E94DE090895E82FF0E0E454FC4F18
:1025C00080810895089580EA8A95F1F7089500C002
:1025D00008950E94E312089508950E94EC12089550
:1025E0000E94ED1208950E94EC1208950E94F312C9
:1025F00008950E94EC120895A4E0B0E0E2E0F3E157
:102600000C945C2E0E9489146091C4038823E9F124
:1026100019821A821B821C82862F90E08E010F5F26
:102620001F4FB80184549C4F0E94BE14882389F028
:102630008091B30390E044E050E0B80184549C4F93
:102640000E94992E21E020930603892B69F410E063
:1026500019C0809106038823D1F384E0F801119218
:102660008A95E9F710920603E091B303F0E0E45491
:10267000FC4F89819A81AB81BC8180839183A28345
:10268000B38311E00E9475040DC070E064547C4F68
:102690008091B30390E084549C4F0E9447150E94A0
:1026A000F91210E0812F2496E4E00C94782EF8942F
:1026B000E82FE295EF70F0E031A1282F2F7081E034
:1026C00090E001C0880F2A95EAF7982F9095932300
:1026D00091A392A1892B82A3789408950F931F93BD
:1026E000CF93DF93CDE4D2E089918F3F11F00E9428
:1026F000571382E0C135D807B9F7C8E4D2E00DE43A
:1027000012E089918F3F11F00E9457130C171D079B
:10271000C1F7DF91CF911F910F910895A0E0B0E034
:10272000E4E9F3E10C94582E8C01C62FD0E0CE01E1
:10273000835B9D4F7C01FC0190819F3F09F447C062
:10274000D62EF894E92FE295EF70F0E081A19F700A
:1027500021E030E001C0220F9A95EAF7822B81A395
:1027600082A12095282322A378940E94E712E8E40E
:10277000F2E04DE452E031E0C12C21912F3F89F08D
:10278000A22FA295AF70B0E090968C9190E02F7040
:1027900002C0959587952A95E2F780FD02C0832FA8
:1027A00001C080E0C82A330F4E175F0731F7F701E9
:1027B00080818F3F11F00E94571361E0C11001C06A
:1027C00060E08D2D0E94E912C00FD11FC882CDB7E5
:1027D000DEB7E8E00C94742E8091A2018091A201F2
:1027E000811102C094E001C090E09093C40384E0A2
:1027F000891B8093B3030E946E1388E0ECEBF3E037
:10280000DF01982F1D929A95E9F7E4EBF3E0DF01E1
:102810001D928A95E9F784E00E944F140E94720489
:102820000895A8E0B0E0E7E1F4E10C945B2E8E019E
:102830000F5F1F4F88E0F80111928A95E9F7F12C9C
:102840006F2DC8010E948E13F394F4E0FF12F8CFAD
:1028500048E050E0B80184EB93E00E94992E21E01B
:10286000009709F420E0892B41F088E0F801A4EBFF
:10287000B3E001900D928A95E1F76091C40370E096
:1028800064547C4F44E084EB93E00E945014182F72
:102890000E94FC12812B2896E5E00C94772E089577
:1028A000EF92FF920F931F93CF93DF937C018B01E5
:1028B000C42F222349F081E0809309030E9401275D
:1028C000909308038093070380910903811102C04C
:1028D00080E01AC080910703909108030E94192795
:1028E0000597B0F3D0E0AE01B701C8010E94992E60
:1028F000892B39F0AE01B701C8010E94A62E81E0F4
:1029000001C080E010920903CDB7DEB7E6E00C9479
:10291000762E80910C0381110DC00E94272E81110B
:1029200002C082E001C081E080930C03823011F488
:102930000E94222E81E090910C03913009F080E0FA
:1029400008950E94891491E0892708950E94A11496
:102950008093A2010E94891481110E94F6140895A7
:102960000E948914811102C00E94F914089581E027
:1029700090910D039A3008F080E008950F931F9313
:10298000CF93DF93EC018B0180910D038A3038F4F3
:10299000B801CE010E94441581111DC00AC080916A
:1029A0000A0390910B030E941927843F914080F7FE
:1029B00015C080910D038F3F19F08F5F80930D0339
:1029C00080910D038A3060F00E94012790930B03E1
:1029D00080930A0303C010920D0302C080E001C07F
:1029E00081E0DF91CF911F910F9108950E94902374
:1029F00008950E9493230895A0E0B0E0E2E0F5E19D
:102A00000C94592E7901C82F880FDD0B4115510503
:102A1000A9F0FE0193E0EE0FFF1F9A95E1F7ED5547
:102A2000FE4F81819281825F9C4F208130E042176E
:102A3000530708F49A01A9010E94A62ECE010E9414
:102A40007B24D82E8823D1F001151105B9F083E03D
:102A5000CC0FDD1F8A95E1F7FE01ED55FE4F438156
:102A600050E00417150708F4A801CD55DE4F6C811E
:102A70007D81625F7C4FC7010E94A62E8D2DCDB750
:102A8000DEB7E7E00C94752E0E94411608950E946F
:102A900058160895A4E0B0E0E0E5F5E10C945C2E52
:102AA0006091230370912403809125039091260364
:102AB0000E942827643671058105910528F10E943E
:102AC000A112DC01CB010296A11DB11D89839A835D
:102AD000AB83BC8300E010E020E030E044E050E055
:102AE000BE016F5F7F4F82E00E94FC14182F882385
:102AF00061F00E940D276093230370932403809359
:102B000025039093260301C011E0812F2496E4E071
:102B10000C94782EA0E0B0E0E0E9F5E10C94562E9C
:102B20007C015B016A010E94B714811103C001E0BE
:102B300010E002C00AE010E0C1E0D0E0B501C7013A
:102B4000F6010995811115C021960C171D0794F007
:102B5000CC9F9001CD9F300D300D112480E090E08E
:102B600045E34A95F1F70000019682179307C1F7F4
:102B7000E5CF81E0CDB7DEB7EAE00C94722EA5E098
:102B8000B0E0E5ECF5E10C94562E5B01E0905102CB
:102B9000F090520201E010E09E012B5F3F4F40E0B9
:102BA00050E060E070E080E00E94FC14182F882361
:102BB00009F43EC067018FEFC81AD80A60911F035D
:102BC0007091200380912103909122030E94282775
:102BD000643671058105910518F104E010E09E014D
:102BE0002F5F3F4F40E050E060E070E081E00E94E6
:102BF000FC14182F64E070E0C6010E94351991E0C2
:102C00002D81281390E0192351F10E940D27609324
:102C10001F0370932003809321039093220311C01C
:102C200064E070E0C6010E9435199D818913D5CFFB
:102C3000F70181819281A381B48189839A83AB83D7
:102C4000BC83112361F089819A81AB81BC8180931F
:102C50001B0390931C03A0931D03B0931E0380914C
:102C60001B0390911C03A0911D03B0911E03F5015D
:102C700080839183A283B383812F2596EAE00C940D
:102C8000722E0F931F93CF93DF93EC018B014FEBC9
:102C900055E10E948A15882331F04AE455E1B801D4
:102CA000CE010E948A15DF91CF911F910F91089557
:102CB0000F931F93CF93DF93C0915102D091520293
:102CC000CE01019624E0FB01DC0101900D922A95D2
:102CD000E1F764E070E00E94351988836D817E81A0
:102CE0008F81988500911703109118032091190383
:102CF00030911A03601771078207930751F06093B0
:102D00001703709318038093190390931A030E947A
:102D10008412DF91CF911F910F9108950E94F528A1
:102D20000E94E60F0E94022908950E9407290E942E
:102D300004100E94212908950E9498260E94DB28F1
:102D40000E94D30F0E948E160E9495160E94DC0FDF
:102D5000FBCF80912F0380FF06C06091BF0170E020
:102D6000660F771F26C081FF04C06091BF0184E019
:102D700005C082FF07C06091BF0188E0689FB00175
:102D8000112417C090912E039923D1F06091BE01B8
:102D9000961788F72091BF0188E0289F90011124A1
:102DA000929FA001939F500D112470E0CA010E94D0
:102DB000342E6038710540F46115710519F406C0B0
:102DC00068E070E0862F08958FE7089581E0089508
:102DD00080912F0380FF08C06091BC0170E0759561
:102DE00067957595679521C081FF06C06091BC010C
:102DF00070E07595679519C082FF04C06091BC01B1
:102E000070E010C090912D03992399F06091BB015F
:102E10009617A0F78091BC01899FC001112470E032
:102E20000E94342E6038710540F46115710519F463
:102E300006C061E070E0862F08958FE7089581E075
:102E400008958D3C21F40E94A916819504C08E3C02
:102E500029F40E94A9168093330308958F3C21F42E
:102E60000E94A916819504C0803D29F40E94A916EC
:102E7000809332030895893D19F40E94E81605C035
:102E80008A3D31F40E94E8168195809334030895B9
:102E90008B3D21F40E94E816819504C08C3D29F4F5
:102EA0000E94E8168093350308959FE2980F9830AA
:102EB00078F421E030E0A90102C0440F551F9A9533
:102EC000E2F7CA0190913103892B80933103089571
:102ED0008D3D21F480912F0381600BC08E3D21F444
:102EE00080912F03826005C08F3D29F480912F03CC
:102EF000846080932F0308958D3C39F490913303BF
:102F000097FF35C01092330359C08E3C29F490913D
:102F100033031916BCF32BC0909132038F3C29F474
:102F200097FF25C01092320349C0803D19F419164D
:102F3000CCF31DC090913403893D29F41916BCF4DB
:102F4000109234033BC08A3D19F497FF10C0F8CFAC
:102F50008B3D39F49091350397FF09C010923503EA
:102F60002DC08C3D21F4909135031916BCF39FE2DE
:102F7000980F983080F421E030E0A90102C0440F9E
:102F8000551F9A95E2F7CA018095909131038923E4
:102F90008093310313C08D3D21F480912F038E7FE8
:102FA0000BC08E3D21F480912F038D7F05C08F3D96
:102FB00029F480912F038B7F80932F03809132031C
:102FC000811106C080913303811102C010922E033B
:102FD00080913403811106C080913503811102C0B4
:102FE00010922D0308950E94012720913203211190
:102FF00004C020913303222321F090932C0380936B
:103000002B0320913403211104C020913503222386
:1030100021F090932A038093290380E393E00E9498
:103020002E250895E0E3F3E086E0DF011D928A9506
:10303000E9F710922E0310922D0310922F0308959A
:10304000FC01828181110DC0838181110AC08481BC
:10305000811107C091E08581811101C090E0892F25
:1030600001C081E081700895A6E0B0E0EAE3F8E1F4
:103070000C945D2E86E0E0E3F3E0DE011196019012
:103080000D928A95E1F71092320310923303109259
:103090003403109235038B81811104C08C81882305
:1030A00009F45FC080912B0390912C030E94192793
:1030B000AC0190912E03992339F02091C00130E0AA
:1030C0002417350758F04DC0209128038AE0289F27
:1030D000900111242417350718F043C09F3F19F0C1
:1030E0009F5F90932E031B81112361F00E94A9160C
:1030F000111614F09FEF01C091E0989F902D1124BC
:10310000909332031C81112361F00E94A9161116BD
:1031100014F09FEF01C091E0989F902D112490939F
:103120003303309132033323E1F020913303222320
:10313000C1F045EB3403C0011124992319F0909399
:10314000320303C081E08093320335EB2303C001D7
:103150001124992319F09093330303C081E08093E5
:1031600033038D81811104C08E81882309F45FC0EF
:103170008091290390912A030E941927AC01909114
:103180002D03992339F02091BD0130E02417350734
:1031900058F04DC0209127038AE0289F9001112408
:1031A0002417350718F043C09F3F19F09F5F909395
:1031B0002D031D81112361F00E94E816111614F0F1
:1031C0009FEF01C091E0989F902D112490933403BC
:1031D0001E81112361F00E94E816111614F09FEF72
:1031E00001C091E0989F902D112490933503309168
:1031F00034033323E1F0209135032223C1F045EB62
:103200003403C0011124992319F09093340303C0AF
:1032100081E08093340335EB2303C001112499230B
:1032200019F09093350303C081E080933503BE010C
:103230006F5F7F4F80E393E00E944A26811105C0B3
:1032400080E393E00E94201881110E94F31786E02A
:10325000FE013196A0E3B3E001900D928A95E1F76B
:103260002696E3E00C94792E0895FC01680F791FEF
:103270008FEF91E3E617F70771F02191822728E09D
:1032800030E087FF03C0880F892701C0880F2150D5
:103290003109B9F7EFCF0895CF93DF93FC01DB013C
:1032A00012968C91882309F4DDC09F013057233298
:1032B000310508F0D8C0EF010E94270F9093B203A8
:1032C0008093B103FE01E150F047E232F10520F4B2
:1032D000EE59FF4F0C94482E8091B1038160AAC033
:1032E0008091B2038860B2C08091B1038260A2C0B5
:1032F0008091B10320C08091B10388609BC0809110
:10330000B2031EC08091B2038260A0C08091B1035D
:10331000806190C08091B10380628CC08091B103C4
:10332000806488C00E9462098091B103806882C075
:103330008091B103886084607DC08091B203826017
:10334000816084C08091B1038E7F74C08091B2038C
:10335000877F7CC08091B1038D7F6CC08091B10369
:1033600020C08091B103877F65C08091B2031EC0E9
:103370008091B2038D7F6AC08091B1038F7E5AC065
:103380008091B1038F7D56C08091B1038F7B52C075
:103390000E9462098091B1038F774CC08091B10384
:1033A000877F8B7F47C08091B2038D7F8E7F4EC019
:1033B0008091B10382FB222720F991E0922790FBB4
:1033C00082F990FB83F936C08091B203982F9095D3
:1033D00091708E7F892B90FB81F938C08091B10369
:1033E00086FB222720F991E0922790FB86F922C0E4
:1033F0000E9462098091B10387FB222720F991E0A6
:10340000922790FB87F916C081E001C080E00E94FE
:10341000A40F1EC08091B10384FB222720F991E004
:10342000922790FB84F906C08091B103982F909564
:1034300090FB80F98093B1030BC08091B20383FBB2
:10344000222720F991E0922790FB83F98093B20321
:103450008091B1039091B2030E942C0F0E946209E7
:1034600080E001C081E0DF91CF9108958091C1019A
:10347000877F8093C1010E94081D811103C082E0F3
:103480000E941B0E8091C10184FF06C08F7E809335
:10349000C10182E00E94020E8091C10185FF06C039
:1034A0008F7D8093C10180E20E94020E0E94520E25
:1034B000089580E008958B329105A1F038F49C01C5
:1034C0002E5131092A30310550F40CC08D3291054E
:1034D00030F08933910530F08436910519F00E945F
:1034E000591A089581E00895CF93DF93EC01662384
:1034F00019F082E00E94150ECE0190528115904382
:1035000018F4CE01992701C0CE010E94F503DF9186
:10351000CF9108959C0130522115304308F499272A
:103520000E940C040895FC01FF2724E0F695E7951E
:103530002A95E1F79C012F703327EE0FFF1FEA5CFD
:10354000FC4F81E090E002C0880F991F2A95E2F7B6
:10355000662329F020813181822B932B06C0809530
:1035600090952081318182239323918380830895D4
:10357000FC0123E0F695E7952A95E1F7EE71FF2728
:10358000EA5CFC4F8F70992721E030E002C0220FE7
:10359000331F8A95E2F7808191812823392381E0C6
:1035A000232B09F480E00895EF92FF920F931F936D
:1035B000CF93DF93EC017B018A018091C10182FFEF
:1035C0005CC020915C0330915D032C173D0719F01E
:1035D000209709F052C09091C1019B7F9093C10147
:1035E00091FD11C080915E0390915F03A701481B7C
:1035F000590B61E08091C2019091C30148175907AE
:1036000018F460E001C061E061708091C10160FB6D
:1036100081F98093C101C9010E94931A0E94FF0D94
:1036200081FF08C08091C10180618093C10182E067
:103630000E94080E0E94FF0D85FF08C08091C10105
:1036400080628093C10180E20E94080E6091C101F6
:1036500066956170A80180915C0390915D030E9462
:10366000741A6091C10166956170A80180915C0334
:1036700090915D030E948A1A0FC0CE010E94B81A71
:10368000A801682FCE010E948A1A80915C03909154
:103690005D03C817D90711F40E94361AF0925F0330
:1036A000E0925E03CDB7DEB7E6E00C94762E809113
:1036B000C10182FF19C00E94012720915E03309151
:1036C0005F03AC01421B530B2091C2013091C30137
:1036D0004217530748F046E553E0BC0180915C0374
:1036E00090915D030E94D41A08958091C101982F92
:1036F000909590FB80F98093C1010E94361A08953D
:103700008091C1018E7F8093C1010E94361A089575
:103710008091C10181700895CF92DF92EF92FF9264
:103720001F93CF93DF93EC017B010E9401276C0173
:10373000F7018281882361F18091C10182FF07C076
:1037400046E553E0B60180E090E00E94D41AC4310F
:10375000FCE7DF0789F0C5312CE7D20751F0C33110
:103760008CE7D80759F48091C10181608093C10131
:1037700005C00E94751B02C00E94801BCE019052A2
:1037800081159043E0F410925D0310925C0315C024
:10379000C13ED10521F48091C1018F7E06C0C53E96
:1037A000D10531F48091C1018F7D8093C10107C0A3
:1037B000CE0190528115904310F411E067C08091C2
:1037C000C10180FFFACFB701CE010E945B1AF70159
:1037D0001281882309F457C0112309F44EC00E94B6
:1037E000FF0D182F0E94310E812B8D7F99F01092C2
:1037F0005D0310925C0360E0CE010E94931AA70162
:1038000060E0CE010E94741A0E94310E8D7F0E94EA
:103810003B0E2EC086E0F701A6E5B3E001900D92C5
:103820008A95E1F71092580310925A0310925903A7
:103830000E94FF0D182F0E94310E812B86958170FA
:103840009091C10180FB91F99093C1010E94310ECA
:103850008D7F0E943B0ED0935D03C0935C03D0929A
:103860005F03C0925E038091C10184608093C101B7
:1038700082E00E94C70E10E009C0A701B601CE0188
:103880000E94D41A03C011117ECF97CF812FDF91F0
:10389000CF911F91FF90EF90DF90CF9008958832E5
:1038A000910530F48E319105A8F4049770F00FC0A3
:1038B0008D32910561F018F48A9761F006C08C345E
:1038C000910541F08D32924029F080E0089582E028
:1038D0000E94150E81E00895A0E0B0E0E2E7FCE16F
:1038E0000C94592EEC017B01C3378CE7D80749F4BF
:1038F000FB011281112309F47CC00E943B1D10E0E2
:1039000078C00E94FF0DD82E0E94310E082F0E9411
:10391000081D811102C011E06CC00E94FF1CF7015C
:1039200012811123C1F30D290D7909F060C0C03453
:10393000F2E5DF07B0F4C11582E5D80708F059C0F9
:10394000C115E0E4DE0740F4C115F0E2DF07F0F452
:10395000C63ED105C9F54DC0C11580E5D80770F147
:1039600033C0C43BE2E5DE0709F443C0CE01C53BEA
:10397000F2E5DF0730F4805692458034910520F55A
:1039800038C0805C92458097F8F433C0F701858198
:10399000807FC9F48D2F8F71823169F028F48230D5
:1039A00031F5C1EED0E010C0843119F18631F9F45F
:1039B000C6EED2E109C0C5EED0E006C0F7018581B0
:1039C000807F09F4A8CFDD270E94881B811102C0E7
:1039D0008FEF01C08DEF0E941B0ECE010E944F1C85
:1039E000C82F882321F00E94520E1C2F02C00E9473
:1039F0001C1D812FCDB7DEB7E7E00C94752E0E9419
:103A0000012788579C4E909361038093600308952B
:103A100080916203089508958091620381110BC023
:103A20000E940F0E0E94480E0E94FF1C81E08093AE
:103A300062030E940B1D089580916203882341F068
:103A400082E20E9441091092620380E00E940B1DF5
:103A5000089580916203882369F00E9401272091D4
:103A6000600330916103821B930B8F3F9F4710F4DB
:103A70000E941C1D089580916203882319F00E9402
:103A80001C1D08950E940C1D0895893281F1E8F4EF
:103A9000843169F1A8F4873009F076C010922803C8
:103AA00080E18093C00186E08093BF0180E4809331
:103AB000BE0188E08093BC0188E28093BB0164C0B2
:103AC00092EE980F9A30F0F05FC0803509F444C050
:103AD00028F48F3409F058C08AE03FC0813529F0BE
:103AE000823509F051C081E038C08FEF36C0809137
:103AF0006503882379F11092650310926403109294
:103B0000630342C08D5180936503833099F038F48C
:103B1000813069F08230D9F480EC91E00DC08530BD
:103B200099F078F0863099F48BEB91E005C088E24B
:103B300093E002C08FEB91E0909364038093630362
:103B400023C08EEB91E0F8CF8CEB91E0F5CF109293
:103B500065031AC080E0089586EFE0916303F09159
:103B60006403309789F02081082E000C990B820F96
:103B7000911D8F3F910519F014F08FEF04C097FF4E
:103B800002C0108201C0808381E00895482F50E078
:103B9000FA013597EF33F10508F06CC0EC57FF4F91
:103BA0000C94482E0E94A10F60C080910503817F74
:103BB0008E7F8093050381E08093660308950E94C1
:103BC000870453C080910503982F9095917090FBC6
:103BD00080F980930503911148C0897F877F10C0C9
:103BE0008091050381FB222720F991E0922790FB29
:103BF00081F9809305039923C1F1809105038160C8
:103C00008093050332C08091050382FB222720F9AF
:103C100091E0922790FB82F9ECCF8091050383FB22
:103C2000222720F991E0922790FB83F9E2CF0E94AE
:103C300062098091B10387FB222720F991E0922746
:103C400090FB87F98093B10310C0895301C08D5157
:103C500021E030E0A90102C0440F551F8A95E2F728
:103C6000CA010E94C0090E94620981E0089581E0B2
:103C700090E0F7CF80E0089580E008950E943C1E18
:103C80000895CF93C82F80916603813069F038F092
:103C90008230C1F58C2F0E94451D81E039C00E9401
:103CA000FF0D823289F504C00E94FF0D823261F45B
:103CB0008C2F0E943E1E811104C08C2F0E94C61DB5
:103CC0001FC081E090E01CC08C2F0E943C1E81111F
:103CD00016C0C43189F058F4CB3089F0C031B1F44A
:103CE00082E08093660388E30E94451D08C0C932C4
:103CF00019F0C83321F00AC01092660307C081E0B2
:103D0000817006C01092660380E002C080E0F8CFA8
:103D1000CF910895CF93DF9386319C4741F5EB0116
:103D20000E94FF0D982F8A812091A0013091A1015E
:103D3000882379F09A7A81E009F480E08093670320
:103D4000911102C069E201C065E3C9010E941C260D
:103D50000AC080916703811102C069E201C065E376
:103D6000C9010E942A260E94520E80E001C081E013
:103D7000DF91CF910895FC0185818623C1F4928162
:103D80009923B9F08185692383FF04C081E0611123
:103D900011C00DC0892F8F7092959F70982B862F20
:103DA0008F7062956F70682B81E0961719F080E034
:103DB000089581E00895CF93DF93EC016091720341
:103DC0007091730380917403909175030E9428276A
:103DD000643F714081059105A8F480917203909130
:103DE0007303A0917403B091750380936E03909355
:103DF0006F03A0937003B093710384EF91E0A0E090
:103E0000B0E00EC00E940D2760936E0370936F03A5
:103E1000809370039093710382E390E0A0E0B0E0A0
:103E200080936A0390936B03A0936C03B0936D032C
:103E3000D0936903C0936803DF91CF910895FF92F7
:103E40000F931F93CF93DF930091790310917A031F
:103E50000115110509F462C0F82E10926903109241
:103E600068030E942E0E0E94280E00917903109183
:103E70007A03D80117966D917C911897CB019A958A
:103E800081159F4108F4707EC62FD1E0611101C0F9
:103E9000D0E0D8011A96ED91FC911B97309739F03C
:103EA0001C966D917C911D9780E00995D823DD23A8
:103EB00089F08CEF8C0F813A40F46C2F8091A00137
:103EC0009091A1010E942A2605C00E94520E8C2FBB
:103ED0000E945B06E0917903F0917A034081518161
:103EE000FF2071F0818584FD0BC0809178038823C9
:103EF00039F091E09A01215031092F3F3D4708F0F8
:103F000090E090FF03C0CA010E94DB1E0E94520E87
:103F100010927A031092790310927803C801CDB7FA
:103F2000DEB7E5E00C94772E1092C40180E00E9489
:103F30001F1F08958091C401882319F00E94941FC7
:103F4000089581E08093C40108950F931F93809199
:103F5000680390916903892B89F160916E037091D8
:103F60006F0380917003909171030E942827009144
:103F70006A0310916B0320916C0330916D036017FD
:103F8000710782079307D0F08091680390916903CD
:103F90000E94F503109269031092680310926E0359
:103FA00010926F03109270031092710310926A03C3
:103FB00010926B0310926C0310926D031F910F917E
:103FC0000895A9E0B0E0E7EEFFE10C944E2E8C01DD
:103FD0007B836A83DB0112963C903320B1F08E35EF
:103FE000BCE79B0751F08F35ECE79E0759F08D3504
:103FF0009C4759F40E949A1F03C081E08093C4013A
:10400000412CA1C10E94941FFBCF4090C4014110DC
:1040100003C04424439497C1580120EEA21AB1086A
:104020000E94FF0DF82E0E94EB0D582E0E94310EBB
:1040300085298F2938E0A316B10490F4A8014770B0
:10404000552721E030E001C0220F4A95EAF73320DE
:1040500019F0582E522A1AC0522E5094582216C0C7
:10406000582E332009F42DC1109377030093760363
:104070000E940D27609372037093730380937403FF
:10408000909375031092690310926803AA81BB8113
:104090008D919C910E94AB0A80900001909001014B
:1040A0008114910409F424C121E030E0F90102C037
:1040B000EE0FFF1F8A95E2F7FB83EA8320917903D5
:1040C00030917A033D832C8340917603509177039E
:1040D0005F834E83212C632C712CF401E20DF11DC2
:1040E000E20DF11D8081918199878887009709F4FD
:1040F000FFC0511005C0DC0112968C918111DFC008
:10410000E885F985838194812A813B8182239323E9
:10411000892B09F4D4C08185982F977009F487E022
:1041200038E0A316B10440F4332019F081FD09C032
:10413000C6C082FD06C0C3C0332009F4C0C080FFE2
:10414000BEC0A885B985CD90DC900C151D0519F46D
:10415000332009F4B4C0E885F9852C813D81E2174C
:10416000F30709F4ACC00684F785E02D309721F001
:104170008081882309F4A3C0652D888599850E94D4
:10418000BB1E882309F49BC00C151D0511F4730197
:1041900002C0E12CF12C3E2D3170398381E0C11435
:1041A000D10441F0311106C04E815F81C416D5069D
:1041B00009F080E080FF83C080E00E941F1F888597
:1041C000998590937A038093790381E080937803B3
:1041D000A885B98516968C910E942B0EB981B111D4
:1041E00017C0C114D104A1F0E885F98580819181BF
:1041F0009C0124503109213A310540F4682F809107
:10420000A0019091A1010E942A2602C00E945B0693
:10421000A885B98517960D911C911897C8019A9594
:1042200081159F4108F4107EDD24D394C8010197C5
:104230008F3F9D4708F0D12CA885B9851A96ED913E
:10424000FC911B97309739F01C966D917C911D97CE
:1042500081E00995D822DD2041F1E885F985878143
:1042600090850E94BE030E94250EC801F8E0AF169B
:10427000B10418F40E94DB1E18C00497813A91051E
:1042800040F4602F8091A0019091A1010E941C2612
:104290000EC00E94520E8FE39CE90197F1F700C017
:1042A0000000802F0E94AC0502C00E94520E91E0D7
:1042B000E926E0FC46C00E94520E80E043C02394F1
:1042C0000CCF80917603909177030817190781F43A
:1042D0001092770310927603109272031092730378
:1042E0001092740310927503109269031092680380
:1042F0008091790390917A03009709F48ACEA8E01F
:10430000AA16B10438F4652D0E94BB1E811181CE1E
:1043100081E014C0FC01208131810217130729F4C8
:10432000311006C01092780308C0332009F471CE12
:10433000DC0119968C9185FD6CCE80E00E941F1FD8
:1043400002C081E0482E842D2996E2E10C946A2E69
:104350000F931F93CF93DF93C42FD22FFC01828141
:104360008823B1F040937D030E94012790937C0342
:1043700080937B0380E28C0F883008F04DC0C770BB
:1043800081E001C0880FCA95EAF70E94E90644C09F
:1043900080917D03481330C080917B0390917C0312
:1043A0000E941927883C910538F510E21D0FCD17A2
:1043B000B9F080E28C0F883040F4C77081E001C012
:1043C000880FCA95EAF70E94F006183010F581E0D0
:1043D0009D2F977001C0880F9A95EAF70E94E90611
:1043E000802F0E94DF061830B8F4D77081E001C03A
:1043F000880FDA95EAF70AC080E28C0F883060F403
:10440000C77081E001C0880FCA95EAF70E94F006E4
:1044100003C0802F0E94DF06DF91CF911F910F9183
:1044200008950F93FC01E851FC47E730F10590F542
:10443000CB01ED53FF4F0C94482E06E221EE41EEE6
:104440006AE17CE723C007E225EE45EE6BE17CE7FD
:104450001DC006E221EE40EE68E17CE717C007E2EE
:1044600025EE44EE69E17CE711C006E221EE42EE62
:104470006CE17CE70BC007E225EE46EE6DE17CE7E0
:1044800005C008E221E045EE6EE17CE70E94A8212C
:1044900080E008C0FB018281882319F010927D031F
:1044A00001C081E00F910895CF93DF93EC01EA857D
:1044B000FB85309719F06C857D8509958B810E946D
:1044C0001B0E8C810E94080E0E94520E86E0FE0197
:1044D00011928A95E9F7DF91CF910895CF93DF93F9
:1044E000EC018D8181FD12C082608D838B810E94E1
:1044F000150E8C810E94020E0E94520EE885F985ED
:10450000309721F06C857D85CE010995109281034D
:10451000109280038D8180FD03C0CE010E94542241
:10452000DF91CF910895CF93FB01C281CC2301F19C
:10453000209180033091810321153105C1F02817A6
:104540003907A9F0AC01FEE02F9FC0011124FC0146
:10455000E55FFE4F2081246020838A5F9E4FFC012F
:10456000518340830E946E220E94220E01C0C0E04F
:104570008C2FCF910895EF92FF920F931F93CF93BB
:10458000DF939C0137552F3F310511F008F04EC0E5
:10459000DB018C017C01FF248EE0089FF0011124D7
:1045A000EF01CA5FDE4F12969C911297E55FFE4FB6
:1045B000808190FB80F9808312969C91992389F1E8
:1045C0000E94012790937F0380937E038A818F5FEF
:1045D0008A830E94FF0D8B830E94120E9B81892B80
:1045E0008B830E94310E8C83EE81FF81309721F006
:1045F0006C857D85CE0109958EE08E9DF0018F9DA5
:10460000F00D1124E55FFE4F808181FD03C0902FE6
:10461000812F02C090E080E090938003809381031B
:1046200005C081FF03C0CE010E94542281E0CDB7B6
:10463000DEB7E6E00C94762E8091800390918103A2
:10464000892BC9F080917E0390917F030E941927E6
:10465000893C910580F0809180032EE0829FC0010B
:104660001124FC01E55FFE4F208122FD04C08A5F1A
:104670009E4F0E946E2208958EE1489B02C0815099
:10468000E1F7489BFECF0895589880E28A95F1F7AC
:10469000589A0895FC012AE02A95F1F728E090E065
:1046A00080E031E040E14A95F1F7880F489B02C075
:1046B0008160932700C0000040E14A95F1F7215046
:1046C00089F720E12A95F1F729B100C0000030E117
:1046D0003A95F1F7217092272081920F90830895E7
:1046E000A1E0B0E0E6E7F3E20C945A2E19828C01C7
:1046F0007C01E60EF11C0E151F0551F00E943C23B3
:10470000CE0101960E944A23F80181938F01F3CFD5
:1047100081E09981911180E02196E6E00C94762E5B
:10472000509A589A08955098589AE89AE9E6F0E015
:1047300080818C7F80830895615091E001C0990F42
:104740006A95EAF720E031E0992361F0492F482388
:1047500019F0589A232701C0589840E24A95F1F77A
:104760009695F2CF222311F0589A01C0589880E212
:104770008A95F1F758980895FF920F931F93CF935E
:10478000DF93EC018C01060F111DC017D10741F01A
:10479000F9900E94442368E08F2D0E949C23F5CF5E
:1047A000CDB7DEB7E5E00C94772E1F920F920FB6CF
:1047B0000F9211240F931F932F933F934F935F9367
:1047C0006F937F938F939F93AF93BF93EF93FF93D9
:1047D000CF93DF931F92CDB7DEB719820E943C239F
:1047E000CE0101960E944A23082F0695069506954C
:1047F000902F96959570202F2570920F292F23705A
:1048000096959695920F877089135FC08981811163
:104810005CC0043008F059C080E18A95F1F7589ADD
:10482000509A82E08A95F1F700C0589888E0089F76
:1048300080011124D801AD55BE4F1696ED91FC9123
:1048400017973097A9F06091510270915202149617
:104850002D913C911597260F371F11968D919C91A4
:104860001297680F791F13964C9113978C910995A5
:10487000F801ED55FE4F6381662351F0809151029E
:104880009091520224813581820F931F0E94BC2394
:104890000E94442380E18A95F1F758985098589ADD
:1048A00080E18A95F1F7F801ED55FE4F60816623AE
:1048B00051F0809151029091520221813281820FF8
:1048C000931F0E9470230E943C230F90DF91CF9191
:1048D000FF91EF91BF91AF919F918F917F916F91D8
:1048E0005F914F913F912F911F910F910F900FBEAC
:1048F0000F901F9018950F931F93CF93DF938430E1
:1049000091050CF06DC0EC01F894509A589885E030
:104910008A95F1F700009C2F969595702C2F2570A5
:10492000920F892F83709695969523E0CC0FDD1F0B
:104930002A95E1F7980F8E01092B0E94442384E009
:104940008A95F1F700C068E0802F0E949C2380E1E7
:104950008A95F1F75098589A489902C000C0FCCF48
:1049600087E090E0489B08C0019721F4509A589A3C
:10497000789436C000C0F6CFFE01ED55FE4F63813E
:10498000662381F0809151029091520224813581F9
:10499000820F931F0E947023811104C0509A589A6D
:1049A00078941FC00E943C2380E28A95F1F75898C2
:1049B000509A80E18A95F1F7CD55DE4F68816623E4
:1049C00051F0809151029091520229813A81820FD7
:1049D000931F0E94BC230E944423789481E001C06D
:1049E00080E0DF91CF911F910F9108959093550230
:1049F00080935402089590938803809387030895C9
:104A00000E948914811103C0809182030895E0916E
:104A10008703F0918803309729F00190F081E02D11
:104A20000995089580E00895FC01A0918703B09155
:104A30008803109791F08091CD01882341F08091F7
:104A4000B10387FF04C08081818386E08083CF012A
:104A50001296ED91FC91139709950895E0918703C3
:104A6000F0918803309739F022E0DC012C93048028
:104A7000F581E02D09950895A3E0B0E0E2E4F5E2C8
:104A80000C945E2E209185033091860328173907F8
:104A9000A1F09093860380938503E0918703F091C2
:104AA0008803309751F023E029839B838A83068013
:104AB000F781E02DCE01019609952396E2E00C9452
:104AC0007A2EA3E0B0E0E7E6F5E20C945E2E2091AA
:104AD00083033091840328173907A1F0909384034E
:104AE00080938303E0918703F0918803309751F01E
:104AF00024E029839B838A830680F781E02DCE0101
:104B0000019609952396E2E00C947A2EFC013296E8
:104B10008091CD01882331F08091B10387FF02C0DD
:104B20009EE101C096E080E0915028F0219122237F
:104B3000D9F38F5FF9CF0895662351F12091CD010C
:104B40002223E9F02091B10327FF19C0462F469593
:104B5000469546954E31E0F4677021E030E002C0A2
:104B6000220F331F6A95E2F7FC01E40FF11D8281E9
:104B700090E02823392381E0232B69F409C0FC014C
:104B8000329608962191621729F0E817F907D1F7B4
:104B900080E0089581E008959C01FC0132969FEF2A
:104BA00080E04191461789F09F3F19F4411101C0FF
:104BB000982F8F5F8630A9F79F3F39F0F901E90FF1
:104BC000F11D97FDFA956283089508959C012A5F6F
:104BD0003F4FFC014281461301C0128201968217A9
:104BE0009307B9F70895262F2695269526952E31F9
:104BF00068F4FC01E20FF11D677021E030E001C0B4
:104C0000220F6A95EAF78281282B22830895262FA6
:104C10002695269526952E3170F4FC01E20FF11DA4
:104C2000677021E030E001C0220F6A95EAF7209515
:104C300082812823228308952091CD01222339F0F7
:104C40002091B10327FF03C00E94F32508950E941D
:104C5000CC2508952091CD01222339F02091B10374
:104C600027FF03C00E94072608950E94E6250895A5
:104C70002091CD01FC013296222331F08091B103C5
:104C800087FF02C08EE101C086E0DF011D928A9598
:104C9000E9F7089546E050E00E94992E21E0892B23
:104CA00009F420E0822F089508950E945426089563
:104CB00083E0809389030E9455260895811102C0E4
:104CC00081E001C082E0809389030E945526089507
:104CD0000E945E26089581E0809389030E945526F4
:104CE00008950E946B26089508950E9474260895E1
:104CF0000E94752608950E94742608950E947426C5
:104D000008950E9474260895CF930E947E260E94E3
:104D100011140E947B26C0E08C2F0E94DC128111AE
:104D200004C0CF5FC830C1F701C081E0CF910895C2
:104D300085B7806885BF85B7806885BF08951F9255
:104D40000F920FB60F9211248F939F93AF93BF933F
:104D500080918A03811113C08091C5039091C6038D
:104D6000A091C703B091C8034196A11DB11D8093C6
:104D7000C5039093C603A093C703B093C803BF9124
:104D8000AF919F918F910F900FBE0F901F9018952C
:104D90008091CD03843031F10E940F0510928A0377
:104DA00020E488E190E00FB6F894A8958093600025
:104DB0000FBE2093600083B7817F846083BF83B779
:104DC000816083BF7894889583B78E7F83BF0FB649
:104DD000F894A8958091600088618093600010929B
:104DE00060000FBE08950E9462090E941405089594
:104DF00082E084BD93E095BD9AEF97BD80936E00ED
:104E000008952FB7F8948091C5039091C603A0919F
:104E1000C703B091C8032FBF08952FB7F8946091CE
:104E2000C5037091C6038091C7039091C8032FBF3B
:104E300008959C014FB7F8948091C5039091C603E3
:104E4000A091C703B091C8034FBF821B930B089575
:104E5000CF92DF92EF92FF922FB7F894C090C503E4
:104E6000D090C603E090C703F090C8032FBFA701FE
:104E70009601261B370B480B590BCA01B901FF904D
:104E8000EF90DF90CF90089578941F920F920FB615
:104E90000F9211248F939F93AF93BF938091C5037B
:104EA0009091C603A091C703B091C8030196A11DBC
:104EB000B11D8093C5039093C603A093C703B0931D
:104EC000C803BF91AF919F918F910F900FBE0F902C
:104ED0001F90189587E797E7909301088093000843
:104EE0009AE088E10FB6F894A895809360000FBE11
:104EF00090936000FFCF9AE088E10FB6F894A895F0
:104F0000809360000FBE90936000FFCF8091AB0351
:104F100008959B019091CD039430F1F48F708093AC
:104F2000E9008FEF9091E800815095FD06C095ED66
:104F30009A95F1F700008111F5CF8091E80085FF87
:104F40000BC0BA01C90140E050E00E949429809151
:104F5000E8008E778093E800089543E050E0BC01BC
:104F600082E00E948927089546E050E0BC0182E07B
:104F70000E9489270895CF93DF93EC018091CD01A2
:104F8000811105C048E050E0BE0181E00BC0809176
:104F9000B10387FF03C040E282E002C048E081E045
:104FA00050E0BE010E94892780E2FE01ABE8B3E039
:104FB00001900D928A95E1F7DF91CF91089580914C
:104FC000CC03811109C00E941F2B0E947C2B809171
:104FD000E20084608093E20008951092CC0308956B
:104FE0000E94712608956091C90381E0611101C09A
:104FF00080E00E94582608959091CD0381E094307E
:1050000009F080E06091C9030E945E26089542E0A5
:1050100061EC81E00E94982A42E261EC82E00E9409
:10502000982A9091CD0381E0943009F080E060915E
:10503000C9030E94682608958091CF03833009F444
:1050400061C030F4813071F0823009F49BC0089562
:105050008A3009F487C08B3009F46CC0893009F0BC
:10506000A9C020C08091CE03813A09F0A3C08091ED
:10507000E800877F8093E8008091D2039091D3036A
:10508000892B21F460E28BE893E003C060E080E0CC
:1050900090E070E00E94D9298091E8008B7780939E
:1050A000E80008958091CE03813209F083C0809199
:1050B000D2039091D303029708F07CC08091E8005E
:1050C000877F8093E8008091E80082FD05C0809191
:1050D000CD038111F8CF6EC02091F3008091F200D2
:1050E00090E0922B029731F48091F100813011F021
:1050F000863021F48091F1008093AB038091E80029
:105100008B7754C08091CE03813A09F053C08091CF
:10511000D2039091D303892B09F04CC08091E80011
:10512000877F8093E8008091E80080FFFCCF80912A
:10513000CD0137C08091CE038132E1F58091D20359
:105140009091D303892BB1F58091E800877F8093FC
:10515000E8000E94CD2A8091D0038093CD010E9467
:10516000620908958091CE03813221F58091E80093
:10517000877F8093E8000E94CD2A8091D10380939D
:10518000AC0308958091CE03813AA1F48091E800A8
:10519000877F8093E8008091E80080FFFCCF8091BA
:1051A000AC038093F1008091E8008E778093E80053
:1051B0000E94CD2A089584B7877F84BF0FB6F894E4
:1051C000A8958091600088618093600010926000D3
:1051D0000FBE90E080E80FB6F89480936100909342
:1051E00061000FBE0E946B2608950E941F2B0E9433
:1051F0007C2BE2EEF0E080818460808378940E94D2
:10520000072E089585EC91E00E94FB24089580917B
:10521000CD038530A9F48091CD03853079F40E94C7
:10522000C8268091CB038823B1F30E94842688236B
:1052300091F30E947E290E946209EDCF0E94F3261D
:10524000089508950E9425290895292F3327233092
:105250003105C9F060F42130310581F0223031058B
:1052600009F044C08BE390E02CEF34E043C02132DE
:105270003105E1F02232310549F138C082E190E098
:1052800027E335E037C099278130910549F028F0B0
:10529000029761F5E8ECF4E005C0E8EFF4E002C045
:1052A000EAEDF4E0849190E09F0124C0611571055E
:1052B00041F061307105D1F489E090E027E235E0FA
:1052C00019C089E090E02EE035E014C06115710549
:1052D00041F06130710551F486EB90E029E435E04E
:1052E00009C080E490E02FEF35E004C080E090E05A
:1052F00020E030E0FA0131832083089580E189BD08
:1053000082E189BD09B400FEFDCF8091D8008F7D78
:105310008093D8008091E00082608093E0008091CB
:10532000E00081FDFCCF0895A0E0B0E0EAE9F9E2F9
:105330000C94582EEC018B017A010E94EC2A811109
:1053400033C0E114F10439F0F70180819181081B29
:10535000190BC80FD91FC12CD12C0115110519F13A
:105360008091E80085FD16C08091E8008E778093DB
:10537000E800E114F10449F0F70180819181C80E41
:10538000D91ED182C08285E00FC00E94EC2A8823FA
:1053900021F30AC089918093F10001501109FFEFB8
:1053A000CF1ADF0ADACF80E0CDB7DEB7E8E00C94A1
:1053B000742E2091D4033091D5032617370748F077
:1053C0006115710539F42091E8002E772093E800EB
:1053D00001C0B901FC0120E06115710579F18091EE
:1053E000CD038823F1F18530F1F18091E80083FD50
:1053F0003CC08091E80082FD2EC08091E80080FFD3
:10540000EBCF2091F3008091F20090E0922B611598
:10541000710551F08830910538F421912093F10005
:10542000615071090196F3CF21E0089709F020E05F
:105430008091E8008E778093E800CECF2111CFCF06
:105440000AC08091CD03882361F0853061F080919E
:10545000E80083FD0AC08091E80082FFF2CF80E07F
:10546000089582E0089583E0089581E008952091F1
:10547000D4033091D5032617370748F0611571051D
:1054800039F42091E8002E772093E80001C0B9019B
:10549000FC0120E06115710591F18091CD03882315
:1054A00009F440C0853009F43FC08091E80083FDD5
:1054B0003DC08091E80082FD2FC08091E80080FF10
:1054C000E9CF2091F3008091F20090E0922B6115DA
:1054D000710559F08830910540F424912093F10032
:1054E0003196615071090196F2CF21E0089709F0D9
:1054F00020E08091E8008E778093E800CBCF2111E7
:10550000CCCF0AC08091CD03882361F0853061F053
:105510008091E80083FD0AC08091E80082FFF2CF0D
:1055200080E0089582E0089583E0089581E0089581
:10553000982F973068F59093E900981739F070919B
:10554000EC002091ED005091F00003C0242F762F45
:1055500050E021FD02C09F5FECCF3091EB003E7F19
:105560003093EB003091ED003D7F3093ED003091B2
:10557000EB0031603093EB007093EC002093ED0072
:105580005093F0002091EE0027FDE5CF80E00895D4
:105590008F708093E90081E008958091CE0387FFAA
:1055A00011C08091E80082FD05C08091CD0381117A
:1055B000F8CF11C08091E8008B770BC08091CD03AC
:1055C000882349F08091E80080FFF8CF8091E800BF
:1055D0008E778093E80008952091E4003091E500F3
:1055E00095E64091EC00842F817040FF23C08091AC
:1055F000E80080FD1DC08091CD03882399F085309F
:1056000099F08091EB0085FD11C04091E40050912C
:10561000E5002417350729F3915011F09A01E1CFE5
:1056200084E0089582E0089583E0089581E008957C
:1056300080E008954091E80042FFDDCF08950E9488
:105640008E2B0E94962BE0EEF0E0808181608083BB
:10565000E8EDF0E080818F77808319BCA7EDB0E0A2
:105660008C918E7F8C9380818F7E80831092CC036F
:1056700008950F931F93CF93DF930E948E2B0E9468
:10568000962BC8EDD0E088818F77888388818068E9
:10569000888388818F7D888319BC1092CD031092F6
:1056A000C9031092CB031092CA0300EE10E0F80178
:1056B00080818B7F808388818160888342E060E085
:1056C00080E00E94982AE1EEF0E080818E7F808366
:1056D000E2EEF0E080818160808380818860808359
:1056E000F80180818E7F8083888180618883DF914B
:1056F000CF911F910F910895E8EDF0E080818F7EAA
:105700008083E7EDF0E080818160808384E082BF68
:1057100081E08093CC030E94392B0895E8EDF0E0FE
:1057200080818E7F80831092E20008951092DA00CB
:105730001092E10008951F920F920FB60F9211245C
:105740002F933F934F935F936F937F938F939F9389
:10575000AF93BF93EF93FF938091E10082FF0BC063
:105760008091E20082FF07C08091E1008B7F8093EF
:10577000E1000E94062E8091DA0080FF1FC0809118
:10578000D80080FF1BC08091DA008E7F8093DA0002
:105790008091D90080FF0DC080E189BD82E189BD83
:1057A00009B400FEFDCF81E08093CD030E94DF2786
:1057B00005C019BC1092CD030E94ED278091E10035
:1057C00080FF19C08091E20080FF15C08091E20047
:1057D0008E7F8093E2008091E20080618093E200FE
:1057E0008091D80080628093D80019BC85E08093B6
:1057F000CD030E94F3278091E10084FF30C08091A7
:10580000E20084FF2CC080E189BD82E189BD09B43A
:1058100000FEFDCF8091D8008F7D8093D8008091CD
:10582000E1008F7E8093E1008091E2008F7E809383
:10583000E2008091E20081608093E2008091C903E0
:10584000882311F084E007C08091E30087FD02C047
:1058500081E001C083E08093CD030E94FC2780910A
:10586000E10083FF29C08091E20083FF25C0809181
:10587000E100877F8093E10082E08093CD03109266
:10588000C9038091E1008E7F8093E1008091E20066
:105890008E7F8093E2008091E20080618093E2003D
:1058A00042E060E080E00E94982A8091F0008860E9
:1058B0008093F0000E94F027FF91EF91BF91AF918C
:1058C0009F918F917F916F915F914F913F912F9118
:1058D0000F900FBE0F901F9018951F920F920FB64A
:1058E0000F9211242F933F934F935F936F937F9366
:1058F0008F939F93AF93BF93CF93DF93EF93FF93D8
:10590000C091E900CF708091EC00D82FD17080FD5C
:10591000D0E81092E9008091F000877F8093F0003A
:1059200078940E94B12C1092E9008091F000886078
:105930008093F000CD2BCF70C093E900FF91EF91E1
:10594000DF91CF91BF91AF919F918F917F916F9197
:105950005F914F913F912F910F900FBE0F901F902D
:105960001895AAE2B0E0E7EBFCE20C945D2EEEECB9
:10597000F3E08091F100819323E0E63DF207C9F75F
:105980000E941C288091E80083FF2EC18091CE03E5
:105990009091CF03492F50E04A30510508F024C1BF
:1059A000FA01E653FF4F0C94482E803821F08238DC
:1059B00009F01AC108C08091CA039091CB039923C2
:1059C00089F082600FC08091D2038F70873008F019
:1059D0000BC18093E9008091EB0085FB882780F95B
:1059E0001092E9009091E800977F9093E8008093EF
:1059F000F1001092F100D1C0282F2D7F09F0F4C0E2
:105A0000882319F0823061F0EFC08091D00381309B
:105A100009F0EAC0933009F080E08093CB032EC0F8
:105A20008091D00381112AC08091D2038F702FEF13
:105A3000280F263008F0D8C08093E9002091EB00B1
:105A400020FF1CC0933021F48091EB00806214C0D1
:105A50009091EB0090619093EB0021E030E0A90180
:105A600002C0440F551F8A95E2F74093EA00109256
:105A7000EA008091EB0088608093EB001092E900CF
:105A80008091E800877F8093E8000E94CD2AACC017
:105A90008111AAC01091D0031F778091E300807814
:105AA000812B8093E3008091E800877F8093E8005A
:105AB0000E94CD2A8091E80080FFFCCF8091E30016
:105AC00080688093E300111102C082E001C083E08E
:105AD0008093CD0389C08058823008F085C08091C2
